S01F0000554152545F4D61737465725F4154584D656761333261342E737265633E
S11300000C94BC000C94C6000C94C6000C94C6005E
S11300100C94C6000C94C6000C94C6000C94C60044
S11300200C94C6000C94C6000C94C6000C94C60034
S11300300C94C6000C94C6000C94C6000C94C60024
S11300400C94C6000C94C6000C94C6000C94C60014
S11300500C94C6000C94C6000C94C6000C94C60004
S11300600C94C6000C94C6000C94C6000C94C600F4
S11300700C94C6000C94C6000C94C6000C94C600E4
S11300800C94C6000C94C6000C94C6000C94C600D4
S11300900C94C6000C94C6000C94C6000C94C600C4
S11300A00C94C6000C94C6000C94C6000C94C600B4
S11300B00C94C6000C94C6000C94C6000C94C600A4
S11300C00C94C6000C94C6000C94C6000C94C60094
S11300D00C94C6000C94C6000C94C6000C94C60084
S11300E00C94C6000C94C6000C94C6000C94C60074
S11300F00C94C6000C94C6000C94C6000C94C60064
S11301000C94C6000C94C6000C94C6000C94C60053
S11301100C94C6000C94C6000C94C6000C94C60043
S11301200C94C6000C94C6000C94C6000C94C60033
S11301300C94C6000C94C6000C94C6000C94C60023
S11301400C94C6000C94C6000C94C6000C94C60013
S11301500C94C6000C94C6000C94C6000C94C60003
S11301600C94C6000C94C6000C94C6000C94C600F3
S11301700C94C6000C94C60011241FBECFEFCDBF53
S1130180DFE2DEBF0E94FB000C9425010C9400000A
S1130190CF93C82F82E00E940C0182E00E940C01E0
S11301A085E60E940C018C2F0E940C0187E68C0FBF
S11301B00E940C0182E00E940C0182E00E940C016A
S11301C080E70E940C018C2F0E940C0182E78C0FA7
S11301D00E940C0182E00E940C0182E00E940C014A
S11301E081E60E940C018C2F0E940C0183E68C0F87
S11301F0CF910C940C01F8940E94130178942FE38E
S11302008DE093E0215080409040E1F700C0000071
S113021085E00E94C800FFCF9091B10895FFFCCF04
S11302208093B0080895E0E4F6E080E8818380E4F8
S11302308283E0EBF8E080E2838388E1848383E0D7
S11102408583868386E987830895F894FFCF2B
S9030000FC
