:100000000C94BC000C94D9000C94D9000C94D90029
:100010000C94D9000C94D9000C94D9000C94D900FC
:100020000C94D9000C94D9000C94D9000C94D900EC
:100030000C94D9000C94D9000C94D9000C94D900DC
:100040000C94D9000C94D9000C94D9000C94D900CC
:100050000C94D9000C94D9000C94D9000C94D900BC
:100060000C94D9000C9451010C94D9000C94D90033
:100070000C9482010C94D9000C94D9000C94D900F2
:100080000C94D9000C94D9000C94D9000C94D9008C
:100090000C94D9000C94D9000C94D9000C94D9007C
:1000A0000C94D9000C94D9000C94D9000C94D9006C
:1000B0000C94D9000C94D9000C94D9000C94D9005C
:1000C0000C94D9000C94D9000C94D9000C94D9004C
:1000D0000C94D9000C94D9000C94D9000C94D9003C
:1000E0000C94D9000C94D9000C94D9000C94D9002C
:1000F0000C94D9000C94D9000C94D9000C94D9001C
:100100000C94D9000C94D9000C94D9000C94D9000B
:100110000C94D9000C94D9000C94D9000C94D900FB
:100120000C94D9000C94D9000C94D9000C94D900EB
:100130000C94D9000C94D9000C94D9000C94D900DB
:100140000C94D9000C94D9000C94D9000C94D900CB
:100150000C94D9000C94D9000C94D9000C94D900BB
:100160000C94D9000C94D9000C94D9000C94D900AB
:100170000C94D9000C94D90011241FBECFEFCDBF31
:10018000DFE2DEBF11E2A0E0B0E2E4E4FFE002C0A3
:1001900005900D92A633B107D9F722E2A6E3B1E2AA
:1001A00001C01D92AC32B207E1F70E943F010C94EE
:1001B000A0070C940000FC01EC59FF4F1082118243
:1001C00032962FEF3FEF20833183329610821182D7
:1001D0000895FC01E859FF4F81E020813181232BF4
:1001E00009F080E00895FC01E859FF4F81E020818B
:1001F00031812436310509F080E008959C01462FB5
:10020000FC01EA59FF4F80819181019664E670E01C
:100210000E94940480839183F901E80FF91F4083C1
:10022000F901E859FF4F8081918101968083918384
:1002300060E070E280E00E94070281E00895FC0126
:10024000EC59FF4FA081B181A80FB91F8C91DB0140
:100250008C9380819181019664E670E00E94940401
:1002600080839183349680819181019780839183EB
:100270006DE070E280E00E94070281E00895F8944A
:1002800081E00E94C60180E00E94C6010E945804DD
:100290008091A20082608093A20078940E941A024A
:1002A000FDCF1F920F920FB60F9211242F933F9301
:1002B0004F935F936F937F938F939F93AF93BF936E
:1002C000CF93EF93FF93C091A00882EC91E20E943C
:1002D000F300811105C06C2F82EC91E20E94FE00B8
:1002E000FF91EF91CF91BF91AF919F918F917F91AE
:1002F0006F915F914F913F912F910F900FBE0F9093
:100300001F9018951F920F920FB60F9211242F93E2
:100310003F934F935F936F937F938F939F93AF938D
:10032000BF93CF93EF93FF93C091B00888E591E21C
:100330000E94F300811105C06C2F88E591E20E94B4
:10034000FE00FF91EF91CF91BF91AF919F918F915F
:100350007F916F915F914F913F912F910F900FBEC1
:100360000F901F90189588E591E20E94DB00E9E369
:10037000F1E2108611861286138614861582168283
:10038000128213821482118217820895811116C07D
:1003900088E08093410684E08093420680E2809367
:1003A000A30888E18093A40883E08093A508809344
:1003B000A60886E98093A70880E017C08130B9F4C9
:1003C00080E88093410680E48093420680E2809337
:1003D000B30888E18093B40883E08093B5088093E4
:1003E000B60886E98093B70881E00C94B3010895BC
:1003F000E9E3F1E2108611861286138614861582CF
:100400001682128213821482118217820895882321
:1004100019F0A0EBB8E002C0A0EAB8E0FB018191BE
:10042000882339F011969C91119795FFFBCF8C93FF
:10043000F6CF0895EF92FF920F931F93CF93DF9320
:100440001F92CDB7DEB7198288E591E20E94E900DC
:10045000811173C1BE016F5F7F4F88E591E20E94F9
:100460001F0180914021823009F443C088F5882320
:10047000B1F1813009F061C1898180933921909176
:100480003621890F8093362182E08093402161E0FC
:1004900081E00E9436048BE390E20E942004809168
:1004A00039211F928F9384E490E29F938F9383E589
:1004B00091E29F938F930E94BC0469E081E00E94C7
:1004C000360483E591E20E94200467E470E28DC067
:1004D000833009F43FC0843009F49FC02EC1898164
:1004E000823009F02AC181E0809340216EE170E200
:1004F00049C0898180933A2190913621890F809358
:1005000036218091392181508093392183E0809375
:10051000402161E082E00E94360484E690E20E947D
:10052000200480913A211F928F9384E490E29F935C
:100530008F9383E591E29F938F930E94BC0469E0BF
:1005400082E00E94360483E591E20E9420046DE679
:1005500070E24BC080913921882309F45EC082305B
:10056000A9F48981282F30E020933C2130933D214C
:1005700091E09093392190913621890F8093362113
:100580006BE870E280E00E940702D7C08130B9F5C5
:10059000898180933B211092392190913621890FD6
:1005A0008093362184E08093402161E083E00E94C3
:1005B000360488EA90E20E94200480913B211F9239
:1005C0008F9384E490E29F938F9383E591E29F93CE
:1005D0008F930E94BC0469E083E00E94360483E5A7
:1005E00091E20E94200460EB70E280E00E9407022A
:1005F0000F900F900F900F900F900F909EC061E0A2
:1006000084E00E9436048DEC90E20E94200481E098
:100610000E94F8016BED70E2B5CF898190E0809384
:100620003E2190933F216CE082E00E94360489EEE7
:1006300090E20E94200480913F218F9380913E217F
:100640008F9384E4E82E80E2F82EFF92EF9203E588
:1006500011E21F930F930E94BC0462E182E00E94AA
:100660003604C8010E9420046CE083E00E94360436
:100670008FEE90E20E942004809136211F928F938A
:10068000FF92EF921F930F930E94BC0462E183E0FC
:100690000E943604C8010E9420048091362190E017
:1006A000CDBFDEBF20913E2130913F2161E0821716
:1006B000930781F584E00E94360485EF90E20E9462
:1006C000200481E080934521809137219091382149
:1006D000019680933721909338219F938F9384E0E4
:1006E00091E29F938F931F930F930E94BC0462E14A
:1006F00084E00E943604C8010E94200467E071E291
:1007000080E00E9407020F900F900F900F900F90C3
:100710000F900FC084E00E94360488E191E20E94AD
:10072000200466E271E280E00E94070281E00E94FC
:10073000F80110923621109240210F90DF91CF9155
:100740001F910F91FF90EF900895E4E6F6E09081FD
:100750009B7F9083A0E6B6E09C91906F9C939081E4
:10076000807F9F70892B808383E08A95F1F700005A
:1007700080818860808383E08A95F1F70000808122
:10078000877F80838C918F708C930895882321F0CC
:1007900080916406826003C0809164068D7F80939F
:1007A000640680916406846080936406809160068C
:1007B0008F708093600600C000C0809164068860DE
:1007C0008093640600C000C0209168068091640692
:1007D000877F8093640600C000C0809164068860B3
:1007E0008093640600C000C0909168068091640602
:1007F000877F80936406207F892F82958F70822B5C
:100800000895CF93DF93C82FD62F80E00E94C603B0
:1008100087FDFBCF80916406DD2311F0826001C06B
:100820008D7F8093640688E08A95F1F78C2F0E9473
:10083000A5038C2F8295807FDF91CF910C94A50327
:100840001F93CF93DF93EC0180E011E0180FFE01BE
:10085000E80FF11D8081882329F061E00E940104E6
:10086000812FF3CFDF91CF911F910895813031F027
:10087000823031F0833031F094ED05C090E803C050
:1008800090EC01C094E98FEF860F60E0890F0C9423
:10089000010460E081E00C940104882341F0E3EF5F
:1008A000F1E03197F1F700C000008150F6CF0895D4
:1008B000E0E6F6E08081806F808380818E608083B7
:1008C000E4E6F6E08081817F80838DE20E944D0422
:1008D00080E30E94A50385E00E944D0480E30E940E
:1008E000A50381E00E944D0480E30E94A50381E0FE
:1008F0000E944D0480E20E94A50383E00E944D0403
:1009000080E20E94A50380E80E94A50360E08CE0DD
:100910000E94010460E081E00E94010460E086E042
:100920000E9401040C94490497FB072E16F40094CE
:1009300007D077FD09D00E94A80407FC05D03EF43B
:10094000909581959F4F0895709561957F4F08957B
:10095000AA1BBB1B51E107C0AA1FBB1FA617B707E5
:1009600010F0A61BB70B881F991F5A95A9F7809501
:100970009095BC01CD010895AEE0B0E0E2ECF4E06A
:100980000C947D070D891E8986E08C8309831A8368
:100990008FEF9FE78D839E83AE01475E5F4F6F8928
:1009A000788DCE0101960E94DE04EF81F885E00F7C
:1009B000F11F10822E96E4E00C949607ABE0B0E0B5
:1009C000E4EEF4E00C946F076C017B018A01FC01FA
:1009D00016821782838181FFCCC1CE0101963C0132
:1009E000F6019381F70193FD859193FF81917F013A
:1009F000882309F4BAC1853239F493FD859193FFB8
:100A000081917F01853229F4B60190E00E94D506DC
:100A1000E7CF912C212C312CFFE1F315D8F08B324C
:100A200079F038F4803279F08332A1F4232D2061FB
:100A30001DC08D3261F0803369F4232D216016C012
:100A4000832D8260382EE32DE4603E2E2AC0F32DE4
:100A5000F8601DC037FC2DC020ED280F2A3040F073
:100A60008E32B9F436FC81C1232D2064322E19C098
:100A700036FE06C08AE0989E200D1124922E11C0E9
:100A8000EAE02E9E200D1124222EF32DF0623F2E3F
:100A900008C08C3621F4832D8068382E02C0883639
:100AA00041F4F70193FD859193FF81917F018111BD
:100AB000B3CF982F9F7D9554933028F40C5F1F4F30
:100AC0009FE399830DC0833631F0833771F083350E
:100AD00009F059C021C0F801808189830E5F1F4F42
:100AE00088248394912C530113C02801F2E04F0E07
:100AF000511CF801A080B18036FE03C0692D70E062
:100B000002C06FEF7FEFC5010E94CA064C0182014F
:100B1000F32DFF773F2E16C0280122E0420E511C14
:100B2000F801A080B18036FE03C0692D70E002C0DC
:100B30006FEF7FEFC5010E94BF064C01F32DF068F7
:100B40003F2E820133FC1BC0822D90E0881699064F
:100B5000B0F4B60180E290E00E94D5062A94F4CF6A
:100B6000F50137FC859137FE81915F01B60190E078
:100B70000E94D50621102A9421E0821A910881143E
:100B8000910471F7E8C0843611F0893641F5F80117
:100B900037FE07C060817181828193810C5F1F4F96
:100BA00008C060817181072E000C880B990B0E5FC5
:100BB0001F4FF32DFF763F2E97FF09C0909580952C
:100BC000709561957F4F8F4F9F4FF0683F2E2AE0C1
:100BD00030E0A3010E941107882E861845C0853792
:100BE00031F4232D2F7EB22E2AE030E025C0932D44
:100BF000997FB92E8F36C1F018F4883579F0B5C0D9
:100C0000803719F0883721F0B0C0E92FE061BE2E9F
:100C1000B4FE0DC0FB2DF460BF2E09C034FE0AC027
:100C2000292F2660B22E06C028E030E005C020E162
:100C300030E002C020E132E0F801B7FE07C0608179
:100C40007181828193810C5F1F4F06C06081718129
:100C500080E090E00E5F1F4FA3010E941107882ED5
:100C60008618FB2DFF773F2E36FE0DC0232D2E7FDD
:100C7000A22E891458F434FE0BC032FC09C0832D17
:100C80008E7EA82E05C0B82CA32C03C0B82C01C0A2
:100C9000B92CA4FE0FC0FE01E80DF11D8081803348
:100CA00021F49A2D997EA92E09C0A2FE06C0B39404
:100CB000B39404C08A2D867809F0B394A3FC11C0C4
:100CC000A0FE06C0B21488F4280C922C9B180EC00B
:100CD000B21460F4B60180E290E00E94D506B394AD
:100CE000F7CFB21418F42B1802C0982C212CA4FEB4
:100CF00010C0B60180E390E00E94D506A2FE17C0A6
:100D0000A1FC03C088E790E002C088E590E0B6014E
:100D10000CC08A2D867859F0A1FE02C08BE201C07A
:100D200080E2A7FC8DE2B60190E00E94D50689140E
:100D300038F4B60180E390E00E94D5069A94F7CF8C
:100D40008A94F301E80DF11D8081B60190E00E94C4
:100D5000D5068110F5CF222009F442CEB60180E2FB
:100D600090E00E94D5062A94F6CFF60186819781FD
:100D700002C08FEF9FEF2B96E2E10C948807FC01F5
:100D80000590615070400110D8F7809590958E0FB6
:100D90009F1F0895FC016150704001900110D8F729
:100DA000809590958E0F9F1F08950F931F93CF935B
:100DB000DF93FB01238121FD03C08FEF9FEF2CC048
:100DC00022FF16C04681578124813581421753077F
:100DD00044F4A081B1819D012F5F3F4F2083318377
:100DE0008C93268137812F5F3F4F2683378314C032
:100DF0008B01EC01FB010084F185E02D0995892B25
:100E0000E1F6D80116968D919C911797019616964A
:100E10008D939C931797CE01DF91CF911F910F91E6
:100E20000895FA01AA27283051F1203181F1E89480
:100E30006F936E7F6E5F7F4F8F4F9F4FAF4FB1E0CD
:100E40003ED0B4E03CD0670F781F891F9A1FA11DC8
:100E5000680F791F8A1F911DA11D6A0F711D811DC9
:100E6000911DA11D20D009F468943F912AE0269F8E
:100E700011243019305D3193DEF6CF010895462FED
:100E80004770405D4193B3E00FD0C9F7F6CF462FCE
:100E90004F70405D4A3318F0495D31FD4052419337
:100EA00002D0A9F7EACFB4E0A695979587957795F4
:100EB0006795BA95C9F700976105710508959B017B
:100EC000AC010A2E06945795479537952795BA9504
:100ED000C9F7620F731F841F951FA01D08952F92DD
:100EE0003F924F925F926F927F928F929F92AF92BA
:100EF000BF92CF92DF92EF92FF920F931F93CF9307
:100F0000DF93CDB7DEB7CA1BDB0BCDBFDEBF0994C5
:100F10002A88398848885F846E847D848C849B8489
:100F2000AA84B984C884DF80EE80FD800C811B8197
:100F3000AA81B981CE0FD11DCDBFDEBFED010895CD
:040F4000F894FFCF53
:100F4400616464206275666665720A0D006C657979
:100F54006F20756E206275666665720A0D004465C1
:100F6400746563746F20656C20496E6963696F20D2
:100F74006465205472616D610A0D00545F5472619E
:100F84006D613A002578004465746563746F20656B
:100F94006C2054616D616E6F206465207472616DA4
:100FA400610A0D00436F6D616E646F3A00446574AD
:100FB4006563746F20656C20436F6D616E646F2090
:100FC4006465207472616D610A0D00446574656323
:100FD400746F20656C204461746F2064656C2062BA
:100FE40079746520320A0D00435F427974653A00D2
:100FF4004465746563746F20656C204461746F206C
:1010040064656C206279746520310A0D0045727242
:101014006F72207472616D612020004572726F726C
:10102400207472616D610A0D0043684B5F4C00438C
:10103400686B5F43005472616D6120436F72726527
:10104400637461002569005472616D6120436F729D
:1010540072656374610A0D004572726F7220436891
:10106400656B73756D004572726F72206368656B92
:0610740073756D0A0D000A
:00000001FF
