S0140000554152545F4573636C61766F2E73726563A8
S11300000C9434000C9451000C9451000C94510045
S11300100C9451000C9451000C9451000C94510018
S11300200C9451000C9451000C9451000C94510008
S11300300C9451000C9451000C9451000C945100F8
S11300400C9451000C9451000C94E7010C94510051
S11300500C9451000C9451000C9451000C945100D8
S11300600C9451000C94510011241FBECFEFD8E022
S1130070DEBFCDBF11E0A0E0B1E0EEEBFCE002C0DA
S113008005900D92AE35B107D9F722E0AEE5B1E0A7
S113009001C01D92A434B207E1F70E94DC010C9464
S11300A05D060C940000FC01E853FF4F118210829E
S11300B03296118210820895CF93DF93CDB7DEB7C5
S11300C0C353DF4F88819981CD5CD040C153DF4F4A
S11300D048815981CF5CD0404336510511F40097D3
S11300E049F09C012150310981E02417350719F0AA
S11300F080E001C081E0DF91CF9108950F931F93B9
S1130100CF938C01C62F2DB73EB72C5C31090FB6A7
S1130110F8943EBF0FBE2DBFADB7BEB711968CECA1
S1130120F80101900D928A95E1F70E945C002DB7C9
S11301303EB724533F4F0FB6F8943EBF0FBE2DBFBA
S1130140811119C0D801A653BF4F2D913C9111972D
S1130150F901EE0FFF1FE00FF11F6C2F70E07183A8
S113016060832336310519F41D921C9204C02F5F5D
S11301703F4F2D933C93CF911F910F910895FC0114
S1130180E853FF4F20813181DC01A653BF4F4D91CD
S11301905C912417350711F48FEF0895A901440FDA
S11301A0551FDC01A40FB51F8C912336310519F4BA
S11301B01182108208952F5F3F4F31832083089569
S11301C029989AB1906F9AB99BB1807F9F70892BBF
S11301D08BB900C000C02A9A00C000C02A988AB116
S11301E08F708AB90895882311F0289A01C028983D
S11301F0299A8AB18F708AB900C000C02A9A00C0B7
S113020000C029B12A9800C000C02A9A00C000C0CA
S113021099B12A98207F892F82958F70822B089517
S1130220CF93DF93C82FD62F80E00E94F30087FD81
S1130230FBCFDD2311F0289A01C0289883E08A952A
S1130240F1F700008C2F0E94E0008C2F8295807FB4
S1130250DF91CF910C94E0008AB1806F8AB984B1A8
S1130260876084B985B1887F85B983EE97E5019766
S1130270F1F700C0000080E30E94E00083EC99E005
S11302800197F1F700C0000080E30E94E00083EFD3
S113029091E00197F1F700C0000080E30E94E000C4
S11302A083EF91E00197F1F700C0000080E20E9423
S11302B0E00083EF91E00197F1F700C0000080E2D5
S11302C00E94E00080E80E94E00060E08CE00E9470
S11302D0100160E081E00E94100160E086E00C946F
S11302E010011F93CF93DF93EC0180E011E0180F0E
S11302F0FE01E80FF11D8081882329F061E00E944E
S11303001001812FF3CFDF91CF911F910895813098
S113031031F0823031F0833031F094ED05C090E853
S113032003C090EC01C094E98FEF860F60E0890F61
S11303300C94100180916D018823E9F1809163018F
S1130340843041F46CE081E00E94870180E091E018
S11303500E947101809164018A3059F56CE081E05A
S11303600E94870187E091E00E94710180915E0103
S113037090915F01019690935F0180935E019F933A
S11303808F938EE091E09F938F938EE691E09F93FD
S11303908F930E94730363E181E00E9487018EE6DC
S11303A091E00E9471010F900F900F900F900F90A9
S11303B00F900C9478020895F8940E9461020E94B0
S11303C02C0178940E9486020E949A01FBCF1F920E
S11303D00F920FB60F9211242F933F934F935F9375
S11303E06F937F938F939F93AF93BF93CF93EF9329
S11303F0FF93C091C6002DB73EB72C5C31090FB6F0
S1130400F8943EBF0FBE2DBFADB7BEB711968CECAE
S1130410E8E7F1E001900D928A95E1F70E945C0013
S11304202DB73EB724533F4F0FB6F8943EBF0FBECF
S11304302DBF811105C06C2F88E791E00E947E00DA
S1130440FF91EF91CF91BF91AF919F918F917F9148
S11304506F915F914F913F912F910F900FBE0F902D
S11304601F901895CF93DF93CDB7DEB7CC5CD1093D
S11304700FB6F894DEBF0FBECDBFCE0101960E9429
S113048053008CECFE013196A8E7B1E001900D9287
S11304908A95E1F7E2E6F1E017821086118612866A
S11304A01386168215821282148213821182C45317
S11304B0DF4F0FB6F894DEBF0FBECDBFDF91CF91F3
S11304C00895519A5098E1ECF0E08081886180832E
S11304D0808180688083E2ECF0E0808186638083A1
S11304E087E690E09093C5008093C4000C94320298
S11304F0E2E6F1E0178210861186128613861682D0
S1130500158212821482138211820895CF9388E790
S113051091E00E94BF00C82F80916901811107C03A
S1130520C23009F0DEC081E080936901DAC08091B5
S11305306A01811128C0C093620181E080936A013D
S113054080916001909161018C0F911D90936101E4
S11305508093600161E081E00E94870181E191E084
S11305600E947101809162011F928F938AE191E050
S11305709F938F9383E791E09F938F930E947303DC
S113058069E081E030C090916B018091620191112A
S113059037C0C093630181508093620181E08093EE
S11305A06B0180916001909161018C0F911D90937A
S11305B061018093600161E082E00E9487018DE126
S11305C091E00E947101809163011F928F938AE1EF
S11305D091E09F938F9383E791E09F938F930E9481
S11305E0730369E082E00E9487010F900F900F90DF
S11305F00F900F900F9083E791E0CF910C947101CD
S1130600882309F448C08230A1F48C2F90E09093A1
S113061066018093650121E02093620120916001CD
S113062030916101820F931F909361018093600167
S113063058C0813029F5C093640110926201809101
S11306406001909161018C0F911D909361018093E1
S1130650600161E083E00E94870186E291E00E94EC
S113066071011F92CF938AE191E09F938F9383E767
S113067091E09F938F930E94730369E083E0B3CF6B
S113068061E084E00E9487018FE291E00E947101A1
S1130690CF910C9478028C2F90E090936801809312
S11306A06701209160013091610161E08217930735
S11306B059F484E00E9487018DE391E00E94710166
S11306C081E080936D0109C084E00E9487018CE47D
S11306D091E00E9471010E947802109261011092CF
S11306E06001CF910895AEE0B0E0E9E7F3E00C9447
S11306F034060D891E8986E08C831A8309838FEF63
S11307009FE79E838D83AE01475E5F4F6F89788D2F
S1130710CE0101960E949503EF81F885E00FF11F49
S113072010822E96E4E00C945006ABE0B0E0EBE9C6
S1130730F3E00C9426066C017B018A01FC0117820C
S11307401682838181FFCCC1CE0101963C01F60162
S11307509381F70193FD859193FF81917F01882314
S113076009F4BAC1853239F493FD859193FF8191DF
S11307707F01853229F4B60190E00E948C05E7CF11
S1130780912C212C312CFFE1F315D8F08B3279F028
S113079038F4803279F08332A1F4232D20611DC016
S11307A08D3261F0803369F4232D216016C0832DCE
S11307B08260382EE32DE4603E2E2AC0F32DF860CB
S11307C01DC037FC2DC020ED280F2A3040F08E329A
S11307D0B9F436FC81C1232D2064322E19C036FEB3
S11307E006C08AE0989E200D1124922E11C0EAE0E2
S11307F02E9E200D1124222EF32DF0623F2E08C0D0
S11308008C3621F4832D8068382E02C0883641F45A
S1130810F70193FD859193FF81917F018111B3CFFE
S1130820982F9F7D9554933028F40C5F1F4F9FE3BE
S113083099830DC0833631F0833771F0833509F025
S113084059C021C0F801808189830E5F1F4F88241D
S11308508394912C530113C02801F2E04F0E511CD4
S1130860F801A080B18036FE03C0692D70E002C09B
S11308706FEF7FEFC5010E9481054C018201F32DCA
S1130880FF773F2E16C0280122E0420E511CF801CA
S1130890A080B18036FE03C0692D70E002C06FEF06
S11308A07FEFC5010E9476054C01F32DF0683F2EC1
S11308B0820133FC1BC0822D90E088169906B0F4A7
S11308C0B60180E290E00E948C052A94F4CFF501F1
S11308D037FC859137FE81915F01B60190E00E945B
S11308E08C0521102A9421E0821A91088114910424
S11308F071F7E8C0843611F0893641F5F80137FE06
S113090007C060817181828193810C5F1F4F08C091
S113091060817181072E000C880B990B0E5F1F4FAD
S1130920F32DFF763F2E97FF09C090958095709523
S113093061957F4F8F4F9F4FF0683F2E2AE030E044
S1130940A3010E94C805882E861845C0853731F456
S1130950232D2F7EB22E2AE030E025C0932D997FDF
S1130960B92E8F36C1F018F4883579F0B5C08037C8
S113097019F0883721F0B0C0E92FE061BE2EB4FE33
S11309800DC0FB2DF460BF2E09C034FE0AC0292F10
S11309902660B22E06C028E030E005C020E130E039
S11309A002C020E132E0F801B7FE07C06081718126
S11309B0828193810C5F1F4F06C06081718180E04A
S11309C090E00E5F1F4FA3010E94C805882E861871
S11309D0FB2DFF773F2E36FE0DC0232D2E7FA22E3A
S11309E0891458F434FE0BC032FC09C0832D8E7E6A
S11309F0A82E05C0B82CA32C03C0B82C01C0B92C58
S1130A00A4FE0FC0FE01E80DF11D8081803321F4A6
S1130A109A2D997EA92E09C0A2FE06C0B394B39460
S1130A2004C08A2D867809F0B394A3FC11C0A0FEFB
S1130A3006C0B21488F4280C922C9B180EC0B21471
S1130A4060F4B60180E290E00E948C05B394F7CF85
S1130A50B21418F42B1802C0982C212CA4FE10C038
S1130A60B60180E390E00E948C05A2FE17C0A1FCB1
S1130A7003C088E790E002C088E590E0B6010CC0AE
S1130A808A2D867859F0A1FE02C08BE201C080E273
S1130A90A7FC8DE2B60190E00E948C05891438F41D
S1130AA0B60180E390E00E948C059A94F7CF8A9473
S1130AB0F301E80DF11D8081B60190E00E948C05E0
S1130AC08110F5CF222009F442CEB60180E290E0F5
S1130AD00E948C052A94F6CFF6018681978102C084
S1130AE08FEF9FEF2B96E2E10C944206FC010590F8
S1130AF0615070400110D8F7809590958E0F9F1F1C
S1130B000895FC016150704001900110D8F7809560
S1130B1090958E0F9F1F08950F931F93CF93DF938C
S1130B20FB01238121FD03C08FEF9FEF2CC022FF27
S1130B3016C046815781248135814217530744F4F6
S1130B40A081B1819D012F5F3F4F318320838C931E
S1130B50268137812F5F3F4F3783268314C08B0153
S1130B60EC01FB010084F185E02D0995892BE1F668
S1130B70D80116968D919C911797019617969C9380
S1130B808E931697CE01DF91CF911F910F91089507
S1130B90FA01AA27283051F1203181F1E8946F93AA
S1130BA06E7F6E5F7F4F8F4F9F4FAF4FB1E03ED050
S1130BB0B4E03CD0670F781F891F9A1FA11D680FEE
S1130BC0791F8A1F911DA11D6A0F711D811D911D21
S1130BD0A11D20D009F468943F912AE0269F112496
S1130BE03019305D3193DEF6CF010895462F4770FA
S1130BF0405D4193B3E00FD0C9F7F6CF462F4F7055
S1130C00405D4A3318F0495D31FD4052419302D0B2
S1130C10A9F7EACFB4E0A695979587957795679558
S1130C20BA95C9F700976105710508959B01AC0158
S1130C300A2E06945795479537952795BA95C9F77F
S1130C40620F731F841F951FA01D08952F923F925A
S1130C504F925F926F927F928F929F92AF92BF92C8
S1130C60CF92DF92EF92FF920F931F93CF93DF9374
S1130C70CDB7DEB7CA1BDB0B0FB6F894DEBF0FBED1
S1130C80CDBF09942A88398848885F846E847D841E
S1130C908C849B84AA84B984C884DF80EE80FD8020
S1130CA00C811B81AA81B981CE0FD11D0FB6F89496
S1110CB0DEBF0FBECDBFED010895F894FFCF57
S1130CBE636D64206F6B006461746F20200025697E
S1130CCE00545F5472616D613A00256400436F6D88
S1130CDE6D616E643A0044545F427974653A00451E
S1130CEE72726F72207472616D6120200054726191
S1130CFE6D6120436F727265637461004572726F29
S1110D0E72204368656B73756D20000A0D003A
S9030000FC
