:100000000C9434000C9449000C9449000C94490061
:100010000C9449000C9449000C9449000C9449003C
:100020000C9449000C9449000C9449000C9449002C
:100030000C9449000C9449000C9449000C9449001C
:100040000C9449000C9449000C9449000C9449000C
:100050000C9449000C9449000C9449000C944900FC
:100060000C9449000C94490011241FBECFEFD8E036
:10007000DEBFCDBF11E0A0E0B1E0EAE2F1E002C0F6
:1000800005900D92A030B107D9F70E945E000C9444
:1000900093000C940000CF93C82F82E00E948C0044
:1000A00082E00E948C0085E60E948C008C2F0E94CA
:1000B0008C0087E68C0FCF910C948C00F8940E94F2
:1000C000760078942FEF89E698E1215080409040A7
:1000D000E1F700C00000C0E0D0E08C2F0E944B0090
:1000E0002196CC3221E0D207C1F7FFCF519A509828
:1000F000E1ECF0E08081886180838081806880838A
:10010000E2ECF0E080818663808387E690E0909364
:10011000C5008093C40008959091C00095FFFCCF66
:0A0120008093C6000895F894FFCF05
:00000001FF
