:100000000C94BC000C94D9000C94D9000C94D90029
:100010000C94D9000C94D9000C94D9000C94D900FC
:100020000C94D9000C94D9000C94D9000C94D900EC
:100030000C94D9000C94D9000C94D9000C94D900DC
:100040000C94D9000C94D9000C94D9000C94D900CC
:100050000C94D9000C94D9000C94D9000C94D900BC
:100060000C94D9000C94D9000C94D9000C94D900AC
:100070000C9428010C94D9000C94D9000C94D9004C
:100080000C94D9000C94D9000C94D9000C94D9008C
:100090000C94D9000C94D9000C94D9000C94D9007C
:1000A0000C94D9000C94D9000C94D9000C94D9006C
:1000B0000C94D9000C94D9000C94D9000C94D9005C
:1000C0000C94D9000C94D9000C94D9000C94D9004C
:1000D0000C94D9000C94D9000C94D9000C94D9003C
:1000E0000C94D9000C94D9000C94D9000C94D9002C
:1000F0000C94D9000C94D9000C94D9000C94D9001C
:100100000C94D9000C94D9000C94D9000C94D9000B
:100110000C94D9000C94D9000C94D9000C94D900FB
:100120000C94D9000C94D9000C94D9000C94D900EB
:100130000C94D9000C94D9000C94D9000C94D900DB
:100140000C94D9000C94D9000C94D9000C94D900CB
:100150000C94D9000C94D9000C94D9000C94D900BB
:100160000C94D9000C94D9000C94D9000C94D900AB
:100170000C94D9000C94D90011241FBECFEFCDBF31
:10018000DFE2DEBF11E2A0E0B0E2EAE1FFE002C0A0
:1001900005900D92A632B107D9F721E2A6E2B1E2AD
:1001A00001C01D92A33AB207E1F70E94B8010C9476
:1001B0008B070C940000109296218FEF809397216B
:1001C00010929821089581E090919821911180E0FA
:1001D000089581E090919821943609F080E0089587
:1001E000282FE7E9F1E28081082E000C990B019697
:1001F00064E670E00E947F048083FC01EE5CFE4DAB
:100200002083E8E9F1E280818F5F808381E00895B7
:10021000CF93DF93C6E9D1E2E8810E2E000CFF0BED
:10022000EE5CFE4D2081FC0120838881082E000CAD
:10023000990B019664E670E00E947F048883E8E9E8
:10024000F1E280818150808381E0DF91CF91089538
:100250001F920F920FB60F9211242F933F934F933B
:100260005F936F937F938F939F93AF93BF93CF933E
:10027000EF93FF93C091B0080E94E900811103C081
:100280008C2F0E94F000FF91EF91CF91BF91AF9121
:100290009F918F917F916F915F914F913F912F919E
:1002A0000F900FBE0F901F901895809131218823D9
:1002B00009F45DC080912B21833041F46CE081E032
:1002C0000E94210480E090E20E940B0480912C2186
:1002D0008150843020F56CE081E00E94210485E0AB
:1002E00090E20E940B0480912C211F928F938BE04F
:1002F00090E29F938F9389E991E29F938F930E945D
:10030000A70462E181E00E94210489E991E20E9450
:100310000B040F900F900F900F900F900F906CE0C8
:1003200081E00E94210485E090E20E940B0480910C
:100330002C211F928F938BE090E29F938F9389E9FA
:1003400091E29F938F930E94A70462E181E00E9453
:10035000210489E991E20E940B040F900F900F9005
:100360000F900F900F9081E090E00C94EE010895B3
:10037000F89481E090E00E94DB0180E090E00E9430
:10038000DB010E9443048091A20082608093A2005E
:1003900078940E940C020E945501FBCF0E94DB0062
:1003A000E9E2F1E210861682178213821482158226
:1003B000128210820895E0E4F6E080E8818380E410
:1003C0008283E0EBF8E080E2838388E1848383E04A
:1003D0008583868386E987830C94CE01E9E2F1E286
:1003E000108616821782138214821582128210825E
:1003F0000895882319F0A0EBB8E002C0A0EAB8E0A5
:10040000FB018191882339F011969C91119795FFFA
:10041000FBCF8C93F6CF0895EF92FF920F931F932B
:10042000CF93DF931F92CDB7DEB719820E94E3000E
:1004300081116EC1CE0101960E940801809129218F
:10044000823009F443C088F58823B1F1813009F086
:100450005FC1898180932A2190912621890F809301
:10046000262182E08093292161E081E00E9421041D
:100470008BE290E20E940B0480912A211F928F93BD
:1004800084E390E29F938F938EE991E29F938F9301
:100490000E94A70469E081E00E9421048EE991E2B4
:1004A0000E940B0467E370E28DC0833009F43FC003
:1004B000843009F49EC02CC18981823009F028C1A2
:1004C00081E0809329216EE070E249C089818093A8
:1004D0002B2190912621890F8093262180912A211A
:1004E000815080932A2183E08093292161E082E07A
:1004F0000E94210484E590E20E940B0480912B214C
:100500001F928F938DE590E29F938F938EE991E2F6
:100510009F938F930E94A70469E082E00E942104C8
:100520008EE991E20E940B0460E670E24BC080917C
:100530002A21882309F45DC08230A9F48981282FFB
:1005400030E020932D2130932E2191E090932A21A9
:1005500090912621890F809326216EE770E280E03A
:100560000E94F901D5C08130B9F5898180932C2191
:1005700010922A2190912621890F8093262184E0D0
:100580008093292161E083E00E9421048BE990E2BD
:100590000E940B0480912C211F928F9384E390E2A0
:1005A0009F938F938EE991E29F938F930E94A7046C
:1005B00069E083E00E9421048EE991E20E940B042D
:1005C00063EA70E280E00E94F9010F900F900F90B3
:1005D0000F900F900F909CC061E084E00E94210476
:1005E00080EC90E20E940B040E94EE016EEC70E23F
:1005F000B6CF898190E080932F21909330216CE0D9
:1006000082E00E9421048CED90E20E940B04809114
:1006100030218F9380912F218F9384E3E82E80E205
:10062000F82EFF92EF920EE911E21F930F930E94B2
:10063000A70462E182E00E942104C8010E940B0429
:100640006CE083E00E94210482EE90E20E940B04A1
:10065000809126211F928F93FF92EF921F930F9309
:100660000E94A70462E183E00E942104C8010E9465
:100670000B048091262190E0CDBFDEBF20912F2179
:100680003091302161E08217930781F584E00E9468
:10069000210488EE90E20E940B0481E080933121D6
:1006A0008091272190912821019680932721909372
:1006B00028219F938F938BE090E29F938F931F93BA
:1006C0000F930E94A70462E184E00E942104C80104
:1006D0000E940B0467EF70E280E00E94F9010F9026
:1006E0000F900F900F900F900F900EC084E00E941B
:1006F000210488E091E20E940B0466E171E280E04F
:100700000E94F9010E94EE011092262110922921E7
:100710000F90DF91CF911F910F91FF90EF9008956F
:10072000E4E6F6E090819B7F9083A0E6B6E09C91A2
:10073000906F9C939081807F9F70892B808383E052
:100740008A95F1F7000080818860808383E08A9534
:10075000F1F700008081877F80838C918F708C936C
:100760000895882321F080916406826003C08091FF
:1007700064068D7F80936406809164068460809314
:100780006406809160068F708093600600C000C090
:100790008091640688608093640600C000C0209148
:1007A000680680916406877F8093640600C000C05D
:1007B0008091640688608093640600C000C09091B8
:1007C000680680916406877F80936406207F892F66
:1007D00082958F70822B0895CF93DF93C82FD62FE9
:1007E00080E00E94B10387FDFBCF80916406DD238A
:1007F00011F0826001C08D7F8093640688E08A9545
:10080000F1F78C2F0E9490038C2F8295807FDF91CF
:10081000CF910C9490031F93CF93DF93EC0180E072
:1008200011E0180FFE01E80FF11D8081882329F0E7
:1008300061E00E94EC03812FF3CFDF91CF911F91F4
:100840000895813031F0823031F0833031F094ED11
:1008500005C090E803C090EC01C094E98FEF860FCB
:1008600060E0890F0C94EC0360E081E00C94EC03F1
:10087000882341F0E3EFF1E03197F1F700C0000089
:100880008150F6CF0895E0E6F6E08081806F8083A6
:1008900080818E608083E4E6F6E08081817F8083C2
:1008A0008DE20E94380480E30E94900385E00E945C
:1008B000380480E30E94900381E00E94380480E3C2
:1008C0000E94900381E00E94380480E20E9490031D
:1008D00083E00E94380480E20E94900380E80E9436
:1008E000900360E08CE00E94EC0360E081E00E94F5
:1008F000EC0360E086E00E94EC030C94340497FB68
:10090000072E16F4009407D077FD09D00E949304B7
:1009100007FC05D03EF4909581959F4F0895709502
:1009200061957F4F0895AA1BBB1B51E107C0AA1F09
:10093000BB1FA617B70710F0A61BB70B881F991F80
:100940005A95A9F780959095BC01CD010895AEE028
:10095000B0E0EDEAF4E00C9468070D891E8986E0AA
:100960008C8309831A838FEF9FE78D839E83AE016B
:10097000475E5F4F6F89788DCE0101960E94C90452
:10098000EF81F885E00FF11F10822E96E4E00C94C1
:100990008107ABE0B0E0EFECF4E00C945A076C0197
:1009A0007B018A01FC0116821782838181FFCCC101
:1009B000CE0101963C01F6019381F70193FD8591EB
:1009C00093FF81917F01882309F4BAC1853239F4FC
:1009D00093FD859193FF81917F01853229F4B601C2
:1009E00090E00E94C006E7CF912C212C312CFFE132
:1009F000F315D8F08B3279F038F4803279F0833205
:100A0000A1F4232D20611DC08D3261F0803369F483
:100A1000232D216016C0832D8260382EE32DE460E3
:100A20003E2E2AC0F32DF8601DC037FC2DC020EDEE
:100A3000280F2A3040F08E32B9F436FC81C1232DC4
:100A40002064322E19C036FE06C08AE0989E200D22
:100A50001124922E11C0EAE02E9E200D1124222E88
:100A6000F32DF0623F2E08C08C3621F4832D806870
:100A7000382E02C0883641F4F70193FD859193FF2B
:100A800081917F018111B3CF982F9F7D9554933031
:100A900028F40C5F1F4F9FE399830DC0833631F01C
:100AA000833771F0833509F059C021C0F801808186
:100AB00089830E5F1F4F88248394912C530113C0A8
:100AC0002801F2E04F0E511CF801A080B18036FEE3
:100AD00003C0692D70E002C06FEF7FEFC5010E9477
:100AE000B5064C018201F32DFF773F2E16C0280179
:100AF00022E0420E511CF801A080B18036FE03C0F6
:100B0000692D70E002C06FEF7FEFC5010E94AA0659
:100B10004C01F32DF0683F2E820133FC1BC0822D67
:100B200090E088169906B0F4B60180E290E00E9449
:100B3000C0062A94F4CFF50137FC859137FE8191E8
:100B40005F01B60190E00E94C00621102A9421E0C6
:100B5000821A91088114910471F7E8C0843611F06B
:100B6000893641F5F80137FE07C0608171818281C5
:100B700093810C5F1F4F08C060817181072E000CAC
:100B8000880B990B0E5F1F4FF32DFF763F2E97FFBB
:100B900009C090958095709561957F4F8F4F9F4FBD
:100BA000F0683F2E2AE030E0A3010E94FC06882E68
:100BB000861845C0853731F4232D2F7EB22E2AE0CA
:100BC00030E025C0932D997FB92E8F36C1F018F4EF
:100BD000883579F0B5C0803719F0883721F0B0C07A
:100BE000E92FE061BE2EB4FE0DC0FB2DF460BF2ED8
:100BF00009C034FE0AC0292F2660B22E06C028E0A4
:100C000030E005C020E130E002C020E132E0F80130
:100C1000B7FE07C060817181828193810C5F1F4F95
:100C200006C06081718180E090E00E5F1F4FA301DC
:100C30000E94FC06882E8618FB2DFF773F2E36FE7D
:100C40000DC0232D2E7FA22E891458F434FE0BC024
:100C500032FC09C0832D8E7EA82E05C0B82CA32C93
:100C600003C0B82C01C0B92CA4FE0FC0FE01E80DD2
:100C7000F11D8081803321F49A2D997EA92E09C01F
:100C8000A2FE06C0B394B39404C08A2D867809F0FE
:100C9000B394A3FC11C0A0FE06C0B21488F4280CC3
:100CA000922C9B180EC0B21460F4B60180E290E062
:100CB0000E94C006B394F7CFB21418F42B1802C0E8
:100CC000982C212CA4FE10C0B60180E390E00E9475
:100CD000C006A2FE17C0A1FC03C088E790E002C0D6
:100CE00088E590E0B6010CC08A2D867859F0A1FE07
:100CF00002C08BE201C080E2A7FC8DE2B60190E069
:100D00000E94C006891438F4B60180E390E00E9486
:100D1000C0069A94F7CF8A94F301E80DF11D808103
:100D2000B60190E00E94C0068110F5CF222009F4A0
:100D300042CEB60180E290E00E94C0062A94F6CF2F
:100D4000F6018681978102C08FEF9FEF2B96E2E13B
:100D50000C947307FC010590615070400110D8F7A6
:100D6000809590958E0F9F1F0895FC0161507040F3
:100D700001900110D8F7809590958E0F9F1F0895D0
:100D80000F931F93CF93DF93FB01238121FD03C0BA
:100D90008FEF9FEF2CC022FF16C046815781248120
:100DA00035814217530744F4A081B1819D012F5F23
:100DB0003F4F208331838C93268137812F5F3F4FB4
:100DC0002683378314C08B01EC01FB010084F1857D
:100DD000E02D0995892BE1F6D80116968D919C910D
:100DE0001797019616968D939C931797CE01DF91D6
:100DF000CF911F910F910895FA01AA27283051F140
:100E0000203181F1E8946F936E7F6E5F7F4F8F4F3B
:100E10009F4FAF4FB1E03ED0B4E03CD0670F781F9A
:100E2000891F9A1FA11D680F791F8A1F911DA11D7F
:100E30006A0F711D811D911DA11D20D009F46894B8
:100E40003F912AE0269F11243019305D3193DEF660
:100E5000CF010895462F4770405D4193B3E00FD016
:100E6000C9F7F6CF462F4F70405D4A3318F0495D01
:100E700031FD4052419302D0A9F7EACFB4E0A695E4
:100E80009795879577956795BA95C9F70097610506
:100E9000710508959B01AC010A2E0694579547955C
:100EA00037952795BA95C9F7620F731F841F951F51
:100EB000A01D08952F923F924F925F926F927F9262
:100EC0008F929F92AF92BF92CF92DF92EF92FF925A
:100ED0000F931F93CF93DF93CDB7DEB7CA1BDB0B06
:100EE000CDBFDEBF09942A88398848885F846E8424
:100EF0007D848C849B84AA84B984C884DF80EE803E
:100F0000FD800C811B81AA81B981CE0FD11DCDBF7F
:0A0F1000DEBFED010895F894FFCF55
:100F1A00435F6F6B004461746F3A00256900446552
:100F2A00746563746F20656C20496E6963696F200C
:100F3A006465205472616D610A0D00545F547261D8
:100F4A006D613A002578004465746563746F2065A5
:100F5A006C2054616D616E6F206465207472616DDE
:100F6A00610A0D00436F6D616E646F3A002563007C
:100F7A004465746563746F20656C20436F6D616EA0
:100F8A00646F206465207472616D610A0D004465A6
:100F9A00746563746F20656C204461746F206465A6
:100FAA006C206279746520320A0D00435F427974BD
:100FBA00653A004465746563746F20656C2044610A
:100FCA00746F2064656C206279746520310A0D00A3
:100FDA004572726F72207472616D612020004572D1
:100FEA00726F72207472616D610A0D0043684B5F03
:100FFA004C0043686B5F43005472616D6120436F1C
:10100A00727265637461005472616D6120436F721C
:10101A0072656374610A0D004572726F72204368CB
:10102A00656B73756D004572726F72206368656BCC
:06103A0073756D0A0D0044
:00000001FF
