:100000000C94BC000C94D9000C94D9000C94D90029
:100010000C94D9000C94D9000C94D9000C94D900FC
:100020000C94D9000C94D9000C94D9000C94D900EC
:100030000C94D9000C94D9000C94D9000C94D900DC
:100040000C94D9000C94D9000C94D9000C94D900CC
:100050000C94D9000C94D9000C94D9000C94D900BC
:100060000C94D9000C943B010C94D9000C94D90049
:100070000C9480010C94D9000C94D9000C94D900F4
:100080000C94D9000C94D9000C94D9000C94D9008C
:100090000C94D9000C94D9000C94D9000C94D9007C
:1000A0000C94D9000C94D9000C94D9000C94D9006C
:1000B0000C94D9000C94D9000C94D9000C94D9005C
:1000C0000C94D9000C94D9000C94D9000C94D9004C
:1000D0000C94D9000C94D9000C94D9000C94D9003C
:1000E0000C94D9000C94D9000C94D9000C94D9002C
:1000F0000C94D9000C94D9000C94D9000C94D9001C
:100100000C94D9000C94D9000C94D9000C94D9000B
:100110000C94D9000C94D9000C94D9000C94D900FB
:100120000C94D9000C94D9000C94D9000C94D900EB
:100130000C94D9000C94D9000C94D9000C94D900DB
:100140000C94D9000C94D9000C94D9000C94D900CB
:100150000C94D9000C94D9000C94D9000C94D900BB
:100160000C94D9000C94D9000C94D9000C94D900AB
:100170000C94D9000C94D90011241FBECFEFCDBF31
:10018000DFE2DEBF10E2A0E0B0E2EEE8F3E002C0A2
:1001900005900D92A030B107D9F721E2A0E0B0E2BE
:1001A00001C01D92AE35B207E1F70E943A010C94EE
:1001B000C5010C940000CF93DF93CDB7DEB7CB55CC
:1001C000DF4F88819981C55AD040C955DF4F48819A
:1001D0005981C75AD0404F34510511F4009749F066
:1001E0009C012150310981E02417350719F080E086
:1001F00001C081E0DF91CF9108951F93CF93DF93EA
:10020000EC01162F2DB73EB7245A31092DBF3EBF42
:10021000ADB7BEB7119684EAFE0101900D928A95A2
:10022000E1F70E94DB002DB73EB72C553F4F2DBFA5
:100230003EBF81111BC0FE01EE55FF4F80819181B1
:10024000FC01EE0FFF1FEC0FFD1F612F70E06083BC
:1002500071838F34910529F4CE55DF4F18821982AE
:1002600005C0CE55DF4F019688839983DF91CF91EA
:100270001F910895FFCF1F920F920FB60F92112476
:100280002F933F934F935F936F937F938F939F939E
:10029000AF93BF93CF93EF93FF93C091A0082DB777
:1002A0003EB7245A31092DBF3EBFADB7BEB7119638
:1002B00084EAE0E0F0E201900D928A95E1F70E9475
:1002C000DB002DB73EB72C553F4F2DBF3EBF8111F0
:1002D00005C06C2F80E090E20E94FD00FF91EF913D
:1002E000CF91BF91AF919F918F917F916F915F91CE
:1002F0004F913F912F910F900FBE0F901F90189527
:100300001F920F920FB60F9211242F933F934F938A
:100310005F936F937F938F939F93AF93BF93CF938D
:10032000EF93FF93C091B0082DB73EB7245A31091F
:100330002DBF3EBFADB7BEB7119684EAEFEAF0E23B
:1003400001900D928A95E1F70E94DB002DB73EB730
:100350002C553F4F2DBF3EBF811105C06C2F8FEA3A
:1003600090E20E94FD00FF91EF91CF91BF91AF917C
:100370009F918F917F916F915F914F913F912F91BD
:0E0380000F900FBE0F901F901895F894FFCFAE
:00000001FF
