S0110000554152545F544553542E7372656338
S11300000C9434000C9446000C9446000C94460066
S11300100C9446000C9446000C9446000C94460044
S11300200C9446000C9446000C9446000C94460034
S11300300C9446000C9446000C9446000C94460024
S11300400C9446000C9446000C94D3000C94460087
S11300500C9446000C9446000C9446000C94460004
S11300600C9446000C94460011241FBECFEFD8E038
S1130070DEBFCDBF21E0A0E0B1E001C01D92A73DED
S1130080B207E1F70E94B6000C9480010C940000C2
S1130090FC01E853FF4F11821082329611821082C4
S11300A00895CF93DF93CDB7DEB7C353DF4F888175
S11300B09981CD5CD040C153DF4F48815981CF5CD9
S11300C0D0404336510511F4009749F09C0121506A
S11300D0310981E02417350719F080E001C081E07F
S11300E0DF91CF9108951F93CF93DF93EC01162FE7
S11300F02DB73EB72C5C31090FB6F8943EBF0FBE46
S11301002DBFADB7BEB711968CECFE0101900D92D8
S11301108A95E1F70E9451002DB73EB724533F4F13
S11301200FB6F8943EBF0FBE2DBF81111BC0FE0158
S1130130E653FF4F80819181FC01EE0FFF1FEC0F0E
S1130140FD1F612F70E0718360838336910529F46C
S1130150C653DF4F1982188205C0C653DF4F01967C
S113016099838883DF91CF911F910895F8940E9419
S11301704C01789487E00E946C012FEF81EE94E0AB
S1130180215080409040E1F700C0000088E00E94C8
S11301906C012FEF81EE94E0215080409040E1F714
S11301A000C00000E7CF1F920F920FB60F921124E8
S11301B02F933F934F935F936F937F938F939F936B
S11301C0AF93BF93CF93EF93FF93C091C6002DB726
S11301D03EB72C5C31090FB6F8943EBF0FBE2DBF5D
S11301E0ADB7BEB711968CECEBE0F1E001900D9247
S11301F08A95E1F70E9451002DB73EB724533F4F33
S11302000FB6F8943EBF0FBE2DBF811105C06C2FF1
S11302108BE091E00E947300FF91EF91CF91BF9129
S1130220AF919F918F917F916F915F914F913F918A
S11302302F910F900FBE0F901F901895CF93DF93BF
S1130240CDB7DEB7CC5CD1090FB6F894DEBF0FBED4
S1130250CDBFCE0101960E9448008CECFE01319680
S1130260ABE0B1E001900D928A95E1F7E0E0F1E0B6
S113027016821782108611861286158212821482C3
S113028013821182C453DF4F0FB6F894DEBF0FBE42
S1130290CDBFDF91CF910895519A5098E1ECF0E0F1
S11302A0808188618083808180688083E2ECF0E0D3
S11302B080818663808383E390E09093C50080937C
S11302C0C4000E941E010895E0ECF0E0908195FFC7
S11302D0FDCF8093C6000895CF93C82F82E00E947B
S11302E0640182E00E94640184E20E9464018C2F14
S11302F00E94640186E28C270E946401CF910895D4
S1070300F894FFCF9B
S9030000FC
