:100000000C94BC000C94D1000C94D1000C94D10041
:100010000C94D1000C94D1000C94D1000C94D1001C
:100020000C94D1000C94D1000C94D1000C94D1000C
:100030000C94D1000C94D1000C94D1000C94D100FC
:100040000C94D1000C94D1000C94D1000C94D100EC
:100050000C94D1000C94D1000C94D1000C94D100DC
:100060000C94D1000C94D1000C94D1000C94D100CC
:100070000C94D1000C94D1000C94D1000C94D100BC
:100080000C94D1000C94D1000C94D1000C94D100AC
:100090000C94D1000C94D1000C94D1000C94D1009C
:1000A0000C94D1000C94D1000C94D1000C94D1008C
:1000B0000C94D1000C94D1000C94D1000C94D1007C
:1000C0000C94D1000C94D1000C94D1000C94D1006C
:1000D0000C94D1000C94D1000C94D1000C94D1005C
:1000E0000C94D1000C94D1000C94D1000C94D1004C
:1000F0000C94D1000C94D1000C94D1000C94D1003C
:100100000C94D1000C94D1000C94D1000C94D1002B
:100110000C94D1000C94D1000C94D1000C94D1001B
:100120000C94D1000C94D1000C94D1000C94D1000B
:100130000C94D1000C94D1000C94D1000C94D100FB
:100140000C94D1000C94D1000C94D1000C94D100EB
:100150000C94D1000C94D1000C94D1000C94D100DB
:100160000C94D1000C94D1000C94D1000C94D100CB
:100170000C94D1000C94D10011241FBECFEFCDBF41
:10018000DFE2DEBF10E2A0E0B0E2E6E2F2E002C0B1
:1001900005900D92A030B107D9F70E94E8000C94A9
:1001A00011010C94000082E00E94F80087E893E1BE
:1001B0000197F1F700C0000082E00E94F80083E0A0
:1001C0000E94F80083E70E94F80088E70C94F8008A
:1001D000F8940E94FF0078942FE38DE093E0215083
:1001E00080409040E1F700C000000E94D300FFCFA4
:1001F0009091B10895FFFCCF8093B0080895E0E49A
:10020000F6E080E8818380E48283E0EBF8E080E23E
:10021000838388E1848383E08583868386E987837B
:060220000895F894FFCFE1
:00000001FF
