:100000000C9434000C9451000C9451000C94510049
:100010000C9451000C9451000C9451000C9451001C
:100020000C9451000C9451000C9451000C9451000C
:100030000C9451000C9451000C9451000C945100FC
:100040000C9451000C9451000C948B010C945100B1
:100050000C9451000C9451000C9451000C945100DC
:100060000C9451000C94510011241FBECFEFD8E026
:10007000DEBFCDBF11E0A0E0B1E0EAE5FCE002C0E8
:1000800005900D92A435B107D9F722E0A4E5B1E0BF
:1000900001C01D92A833B207E1F70E9482010C94BF
:1000A0002B060C940000FC01E853FF4F11821082D4
:1000B00032962FEF3FEF31832083329611821082E8
:1000C0000895FC01E453FF4F81E020813181243603
:1000D000310509F080E008950F931F93CF93DF93CC
:1000E000FC01462FEC01C453DF4F288139812436AF
:1000F0003105E1F08C0106531F4FD8018D919C9181
:10010000019664E670E00E941903D8018D939C93D8
:10011000880F991FE80FF91F642F70E071836083C7
:100120002F5F3F4F3983288381E001C080E0DF915A
:10013000CF911F910F910895CF93DF93EC01C4539A
:10014000DF4F28813981232BF9F09C0128533F4F41
:10015000D901ED91FC911197EE0FFF1FE80FF91FE8
:100160008081FB0180838D919C91019664E670E013
:100170000E941903D9018D939C93888199810197DD
:100180009983888381E001C080E0DF91CF91089559
:1001900029989AB1906F9AB99BB1807F9F70892BF3
:1001A0008BB900C000C02A9A00C000C02A988AB14A
:1001B0008F708AB90895882311F0289A01C0289871
:1001C000299A8AB18F708AB900C000C02A9A00C0EB
:1001D00000C029B12A9800C000C02A9A00C000C0FF
:1001E00099B12A98207F892F82958F70822B08954C
:1001F000CF93DF93C82FD62F80E00E94DB0087FDCE
:10020000FBCFDD2311F0289A01C0289883E08A955E
:10021000F1F700008C2F0E94C8008C2F8295807F00
:10022000DF91CF910C94C8008AB1806F8AB984B1F4
:10023000876084B985B1887F85B983EE97E501979A
:10024000F1F700C0000080E30E94C80083EC99E051
:100250000197F1F700C0000080E30E94C80083EF1F
:1002600091E00197F1F700C0000080E30E94C80010
:1002700083EF91E00197F1F700C0000080E20E9457
:10028000C80083EF91E00197F1F700C0000080E221
:100290000E94C80080E80E94C80060E08CE00E94D4
:1002A000F80060E081E00E94F80060E086E00C94D5
:1002B000F8001F93CF93DF93EC0180E011E0180F5B
:1002C000FE01E80FF11D8081882329F061E00E9482
:1002D000F800812FF3CFDF91CF911F9108958130E6
:1002E00031F0823031F0833031F094ED05C090E888
:1002F00003C090EC01C094E98FEF860F60E0890F96
:100300000C94F800F8940E94CD0178940E94140196
:100310000E94F101FDCF1F920F920FB60F92112490
:100320002F933F934F935F936F937F938F939F93FD
:10033000AF93BF93CF93EF93FF93C091C60085E631
:1003400091E00E946100811105C06C2F85E691E06B
:100350000E946C00FF91EF91CF91BF91AF919F915F
:100360008F917F916F915F914F913F912F910F905E
:100370000FBE0F901F90189585E691E00E945300E4
:10038000E5E5F1E016821782108611861286158245
:1003900012821482138211820895519A5098E1ECCE
:1003A000F0E0808188618083808180688083E2ECD6
:1003B000F0E080818663808387E690E09093C500BB
:1003C0008093C4000C94BC01E5E5F1E0168217822D
:1003D000108611861286158212821482138211826F
:1003E0000895EF92FF920F931F93CF93DF931F9285
:1003F000CDB7DEB71982BE016F5F7F4F85E691E012
:100400000E949C0080915B01811108C0898182302B
:1004100009F007C181E080935B0103C180915C0119
:10042000811124C089818093550191E090935C01F2
:1004300090915401890F8093540161E081E00E9402
:100440006F0180E091E00E945901809155011F9257
:100450008F9388E091E09F938F9383E392E09F9343
:100460008F930E94410369E081E066C090915D0135
:1004700080915501911127C0998190935601815027
:100480008093550181E080935D0180915401980F24
:100490009093540161E082E00E946F018BE091E053
:1004A0000E945901809156011F928F9388E091E03C
:1004B0009F938F9383E392E09F938F930E944103D6
:1004C00069E082E039C0882309F44EC0823081F4AB
:1004D0008981282F30E0309359012093580191E011
:1004E0009093550190915401890F8093540199C0C4
:1004F000813079F58981809357011092550190914F
:100500005401890F8093540161E083E00E946F01E0
:1005100083E191E00E945901809157011F928F93CE
:1005200088E091E09F938F9383E392E09F938F9372
:100530000E94410369E083E00E946F0183E392E03F
:100540000E9459010F900F900F900F900F900F90F5
:1005500068C061E084E00E946F018BE191E00E943D
:1005600059010E94E4015DC0898180935A016BE0CA
:1005700082E00E946F0189E291E00E94590180911E
:100580005A011F928F9388E0E82E81E0F82EFF92A7
:10059000EF9203E312E01F930F930E94410362E185
:1005A00082E00E946F01C8010E9459016BE083E064
:1005B0000E946F018FE291E00E94590180915401E5
:1005C0001F928F93FF92EF921F930F930E9441030C
:1005D00062E183E00E946F01C8010E9459010FB6D9
:1005E000F894DEBF0FBECDBF90915A0180915401A7
:1005F00061E098130BC084E00E946F0185E391E0F5
:100600000E94590181E080935F0109C084E00E944B
:100610006F0184E491E00E9459010E94E40110926C
:1006200054010F90DF91CF911F910F91FF90EF90A8
:10063000089597FB072E16F4009407D077FD09D094
:100640000E942D0307FC05D03EF4909581959F4FA5
:100650000895709561957F4F0895AA1BBB1B51E1CA
:1006600007C0AA1FBB1FA617B70710F0A61BB70B22
:10067000881F991F5A95A9F780959095BC01CD01C7
:100680000895AEE0B0E0E7E4F3E00C9402060D89D3
:100690001E8986E08C831A8309838FEF9FE79E83F0
:1006A0008D83AE01475E5F4F6F89788DCE010196D5
:1006B0000E946303EF81F885E00FF11F10822E96F0
:1006C000E4E00C941E06ABE0B0E0E9E6F3E00C9445
:1006D000F4056C017B018A01FC011782168283817B
:1006E00081FFCCC1CE0101963C01F6019381F70157
:1006F00093FD859193FF81917F01882309F4BAC10D
:10070000853239F493FD859193FF81917F01853284
:1007100029F4B60190E00E945A05E7CF912C212CD4
:10072000312CFFE1F315D8F08B3279F038F48032B8
:1007300079F08332A1F4232D20611DC08D3261F048
:10074000803369F4232D216016C0832D8260382EFA
:10075000E32DE4603E2E2AC0F32DF8601DC037FC67
:100760002DC020ED280F2A3040F08E32B9F436FC2F
:1007700081C1232D2064322E19C036FE06C08AE0C6
:10078000989E200D1124922E11C0EAE02E9E200D7D
:100790001124222EF32DF0623F2E08C08C3621F456
:1007A000832D8068382E02C0883641F4F70193FD0E
:1007B000859193FF81917F018111B3CF982F9F7D08
:1007C0009554933028F40C5F1F4F9FE399830DC01D
:1007D000833631F0833771F0833509F059C021C079
:1007E000F801808189830E5F1F4F88248394912CA8
:1007F000530113C02801F2E04F0E511CF801A080F4
:10080000B18036FE03C0692D70E002C06FEF7FEF4C
:10081000C5010E944F054C018201F32DFF773F2E49
:1008200016C0280122E0420E511CF801A080B180C0
:1008300036FE03C0692D70E002C06FEF7FEFC50187
:100840000E9444054C01F32DF0683F2E820133FCD9
:100850001BC0822D90E088169906B0F4B60180E2A4
:1008600090E00E945A052A94F4CFF50137FC859157
:1008700037FE81915F01B60190E00E945A05211078
:100880002A9421E0821A91088114910471F7E8C03A
:10089000843611F0893641F5F80137FE07C06081D2
:1008A0007181828193810C5F1F4F08C060817181CB
:1008B000072E000C880B990B0E5F1F4FF32DFF7650
:1008C0003F2E97FF09C090958095709561957F4F59
:1008D0008F4F9F4FF0683F2E2AE030E0A3010E9427
:1008E0009605882E861845C0853731F4232D2F7E36
:1008F000B22E2AE030E025C0932D997FB92E8F3695
:10090000C1F018F4883579F0B5C0803719F0883710
:1009100021F0B0C0E92FE061BE2EB4FE0DC0FB2D6A
:10092000F460BF2E09C034FE0AC0292F2660B22E03
:1009300006C028E030E005C020E130E002C020E140
:1009400032E0F801B7FE07C0608171818281938136
:100950000C5F1F4F06C06081718180E090E00E5FE8
:100960001F4FA3010E949605882E8618FB2DFF7746
:100970003F2E36FE0DC0232D2E7FA22E891458F453
:1009800034FE0BC032FC09C0832D8E7EA82E05C01C
:10099000B82CA32C03C0B82C01C0B92CA4FE0FC0E6
:1009A000FE01E80DF11D8081803321F49A2D997E9E
:1009B000A92E09C0A2FE06C0B394B39404C08A2D28
:1009C000867809F0B394A3FC11C0A0FE06C0B2144F
:1009D00088F4280C922C9B180EC0B21460F4B60157
:1009E00080E290E00E945A05B394F7CFB21418F455
:1009F0002B1802C0982C212CA4FE10C0B60180E355
:100A000090E00E945A05A2FE17C0A1FC03C088E72F
:100A100090E002C088E590E0B6010CC08A2D86788F
:100A200059F0A1FE02C08BE201C080E2A7FC8DE27A
:100A3000B60190E00E945A05891438F4B60180E3AB
:100A400090E00E945A059A94F7CF8A94F301E80D3A
:100A5000F11D8081B60190E00E945A058110F5CF0A
:100A6000222009F442CEB60180E290E00E945A05AD
:100A70002A94F6CFF6018681978102C08FEF9FEF0F
:100A80002B96E2E10C941006FC0105906150704039
:100A90000110D8F7809590958E0F9F1F0895FC0147
:100AA0006150704001900110D8F7809590958E0F9D
:100AB0009F1F08950F931F93CF93DF93FB01238113
:100AC00021FD03C08FEF9FEF2CC022FF16C046818F
:100AD0005781248135814217530744F4A081B181A5
:100AE0009D012F5F3F4F318320838C932681378177
:100AF0002F5F3F4F3783268314C08B01EC01FB012E
:100B00000084F185E02D0995892BE1F6D801169630
:100B10008D919C911797019617969C938E9316979B
:100B2000CE01DF91CF911F910F910895FA01AA276D
:100B3000283051F1203181F1E8946F936E7F6E5F20
:100B40007F4F8F4F9F4FAF4FB1E03ED0B4E03CD0CE
:100B5000670F781F891F9A1FA11D680F791F8A1FB1
:100B6000911DA11D6A0F711D811D911DA11D20D018
:100B700009F468943F912AE0269F11243019305DD2
:100B80003193DEF6CF010895462F4770405D4193C3
:100B9000B3E00FD0C9F7F6CF462F4F70405D4A3310
:100BA00018F0495D31FD4052419302D0A9F7EACFD8
:100BB000B4E0A6959795879577956795BA95C9F707
:100BC00000976105710508959B01AC010A2E0694FA
:100BD0005795479537952795BA95C9F7620F731FB3
:100BE000841F951FA01D08952F923F924F925F92F0
:100BF0006F927F928F929F92AF92BF92CF92DF922D
:100C0000EF92FF920F931F93CF93DF93CDB7DEB791
:100C1000CA1BDB0B0FB6F894DEBF0FBECDBF099425
:100C20002A88398848885F846E847D848C849B847C
:100C3000AA84B984C884DF80EE80FD800C811B818A
:100C4000AA81B981CE0FD11D0FB6F894DEBF0FBEB9
:0A0C5000CDBFED010895F894FFCF29
:100C5A00545F5472616D6100256400436F6D616E6B
:100C6A00646F0064617442797465004572726F72D0
:100C7A00207472616D6120200043684B5F4C004311
:100C8A00686B5F43005472616D6120436F727265D5
:100C9A00637461004572726F72204368656B737585
:040CAA006D200000B9
:00000001FF
