:100000000C9434000C9451000C9451000C94510049
:100010000C9451000C9451000C9451000C9451001C
:100020000C9451000C9451000C9451000C9451000C
:100030000C9451000C9451000C9451000C945100FC
:100040000C9451000C9451000C94B7000C94510086
:100050000C9451000C9451000C9451000C945100DC
:100060000C9451000C94510011241FBECFEFD8E026
:10007000DEBFCDBF11E0A0E0B1E0E6E8F2E002C0F3
:1000800005900D92A030B107D9F721E0A0E0B1E0D2
:1000900001C01D92AB3DB207E1F70E94B0000C9485
:1000A00041010C940000FC01E853FF4F11821082C3
:1000B0003296118210823296118210820895FC01CC
:1000C000E453FF4F81E0208131812436310509F06E
:1000D00080E008950F931F93CF93DF93FC01462F89
:1000E000EC01C453DF4F2881398124363105E1F01A
:1000F0008C0106531F4FD8018D919C91019664E6A7
:1001000070E00E941901D8018D939C93880F991F6C
:10011000E80FF91F642F70E0718360832F5F3F4FFA
:100120003983288381E001C080E0DF91CF911F9166
:100130000F910895CF93DF9382E00E94170182E030
:100140000E94170185E60E941701C0E0D1E0888176
:100150000E94170188818959DF91CF910C94170172
:10016000F8940E94F90078940E949A00FFCF1F92A1
:100170000F920FB60F9211242F933F934F935F93DB
:100180006F937F938F939F93AF93BF93CF93EF938F
:10019000FF93C091C6008DE091E00E945F00811145
:1001A00005C06C2F8DE091E00E946A00FF91EF91F5
:1001B000CF91BF91AF919F918F917F916F915F91FF
:1001C0004F913F912F910F900FBE0F901F90189558
:1001D0008DE091E00E945300E2E0F1E01682178288
:1001E0001086118612861582128214821382118261
:1001F0000895519A5098E1ECF0E080818861808305
:10020000808180688083E2ECF0E080818663808377
:1002100087E690E09093C5008093C4000C94E800BA
:100220009091C00095FFFCCF8093C60008950C9478
:10023000100197FB072E16F4009407D077FD09D024
:100240000E942D0107FC05D03EF4909581959F4FAB
:100250000895709561957F4F0895AA1BBB1B51E1CE
:1002600007C0AA1FBB1FA617B70710F0A61BB70B26
:10027000881F991F5A95A9F780959095BC01CD01CB
:060280000895F894FFCF81
:00000001FF
