S0110000554152545F544553542E7372656338
S11300000C9434000C9446000C9446000C94460066
S11300100C9446000C9446000C9446000C94460044
S11300200C9446000C9446000C9446000C94460034
S11300300C9446000C9446000C9446000C94460024
S11300400C9446000C9446000C94AC000C944600AE
S11300500C9446000C9446000C9446000C94460004
S11300600C9446000C94460011241FBECFEFD8E038
S1130070DEBFCDBF21E0A0E0B1E001C01D92AF3AE8
S1130080B207E1F70E94AB000C94F7000C94000057
S1130090CF93DF93CDB7DEB7CB55DF4F88819981FE
S11300A0C55AD040C955DF4F48815981C75AD040FD
S11300B04F34510511F4009749F09C012150310946
S11300C081E02417350719F080E001C081E0DF9159
S11300D0CF9108950F931F93CF938C01C62F2DB703
S11300E03EB7245A31090FB6F8943EBF0FBE2DBF58
S11300F0ADB7BEB7119684EAF80101900D928A95C6
S1130100E1F70E9448002DB73EB72C553F4F0FB67C
S1130110F8943EBF0FBE2DBF811119C0D801AE5552
S1130120BF4F2D913C911197F901EE0FFF1FE00F86
S1130130F11F6C2F70E0718360832F34310519F443
S11301401D921C9204C02F5F3F4F2D933C93CF917F
S11301501F910F910895FFCF1F920F920FB60F9228
S113016011242F933F934F935F936F937F938F93B8
S11301709F93AF93BF93CF93EF93FF93C091C60028
S11301802DB73EB7245A31090FB6F8943EBF0FBEBF
S11301902DBFADB7BEB7119684EAEBE0F1E0019054
S11301A00D928A95E1F70E9448002DB73EB72C5571
S11301B03F4F0FB6F8943EBF0FBE2DBF811105C04F
S11301C06C2F8BE091E00E946A00FF91EF91CF9138
S11301D0BF91AF919F918F917F916F915F914F915B
S11301E03F912F910F900FBE0F901F901895F89488
S10501F0FFCF3B
S9030000FC
