:100000000C9434000C9451000C9451000C94510049
:100010000C9451000C9451000C9451000C9451001C
:100020000C9451000C9451000C9451000C9451000C
:100030000C9451000C9451000C9451000C945100FC
:100040000C9451000C9451000C948C010C945100B0
:100050000C9451000C9451000C9451000C945100DC
:100060000C9451000C94510011241FBECFEFD8E026
:10007000DEBFCDBF11E0A0E0B1E0E8E9FCE002C0E6
:1000800005900D92A836B107D9F721E0A8E6B1E0B6
:1000900001C01D92AA3EB207E1F70E9483010C94B1
:1000A0004A060C940000FC01EC59FF4F11821082AB
:1000B00032962FEF3FEF31832083329611821082E8
:1000C0000895FC01E859FF4F81E020813181232B05
:1000D00009F080E00895FC01E859FF4F81E020819C
:1000E00031812436310509F080E008950F931F9384
:1000F000CF93DF93FC01462FEC01C859DF4F2881D5
:10010000398124363105B9F08C010A591F4FD801C5
:100110008D919C91019664E670E00E943803D801AD
:100120008D939C93E80FF91F40832F5F3F4F3983D6
:10013000288381E001C080E0DF91CF911F910F9172
:100140000895CF93DF93FC01E859FF4F208131815F
:10015000232BD9F0EC01CC59DF4F28813981DC0108
:10016000A20FB31F8C91DB018C938881998101963A
:1001700064E670E00E9438039983888380819181CE
:1001800001979183808381E001C080E0DF91CF916E
:10019000089529989AB1906F9AB99BB1807F9F700A
:1001A000892B8BB900C000C02A9A00C000C02A98D1
:1001B0008AB18F708AB90895882311F0289A01C0F6
:1001C0002898299A8AB18F708AB900C000C02A9AEB
:1001D00000C000C029B12A9800C000C02A9A00C0FF
:1001E00000C099B12A98207F892F82958F70822B29
:1001F0000895CF93DF93C82FD62F80E00E94DC00B4
:1002000087FDFBCFDD2311F0289A01C0289883E0F9
:100210008A95F1F700008C2F0E94C9008C2F8295DF
:10022000807FDF91CF910C94C9008AB1806F8AB929
:1002300084B1876084B985B1887F85B983EE97E5FD
:100240000197F1F700C0000080E30E94C90083EC31
:1002500099E00197F1F700C0000080E30E94C90017
:1002600083EF91E00197F1F700C0000080E30E9466
:10027000C90083EF91E00197F1F700C0000080E230
:100280000E94C90083EF91E00197F1F700C00000E0
:1002900080E20E94C90080E80E94C90060E08CE012
:1002A0000E94F90060E081E00E94F90060E086E0D1
:1002B0000C94F9001F93CF93DF93EC0180E011E0E1
:1002C000180FFE01E80FF11D8081882329F061E0FD
:1002D0000E94F900812FF3CFDF91CF911F910895F4
:1002E000813031F0823031F0833031F094ED05C04F
:1002F00090E803C090EC01C094E98FEF860F60E0B6
:10030000890F0C94F900F8940E94D0010E94150105
:1003100078940E94F601FDCF1F920F920FB60F92B4
:1003200011242F933F934F935F936F937F938F93FA
:100330009F93AF93BF93CF93EF93FF93C091C6006A
:100340008BE791E00E946B00811105C06C2F8BE759
:1003500091E00E947600FF91EF91CF91BF91AF9114
:100360009F918F917F916F915F914F913F912F91CD
:100370000F900FBE0F901F9018958BE791E00E9491
:100380005300E9E6F1E01086118612861386148682
:1003900016821582128214821382118217820895A6
:1003A000519A5098E1ECF0E08081886180838081EF
:1003B00080688083E2ECF0E080818663808387E65A
:1003C00090E09093C5008093C4000C94BD01E9E6D1
:1003D000F1E0108611861286138614861682158225
:1003E000128214821382118217820895EF92FF9273
:1003F0000F931F93CF93DF931F92CDB7DEB7198270
:100400008BE791E00E94610081112AC1BE016F5FFC
:100410007F4F8BE791E00E94A100809170018230B4
:10042000C1F148F5882369F1813009F019C189814A
:100430008093690190916801890F8093680182E03F
:100440008093700161E081E00E94700180E091E0A2
:100450000E945A01809169011F928F9383E591E078
:100460009F938F9385EE91E09F938F930E946003FB
:1004700069E081E075C08330A9F1843009F488C057
:10048000EFC08981823009F0EBC081E08093700178
:10049000E7C0898180936A0190916801890F8093F8
:1004A00068018091690181508093690183E08093A4
:1004B000700161E082E00E9470018BE091E00E9497
:1004C0005A0180916A011F928F9383E591E09F9377
:1004D0008F9385EE91E09F938F930E94600369E074
:1004E00082E03EC080916901882309F451C08230C6
:1004F00081F48981282F30E030936D0120936C01C5
:1005000091E09093690190916801890F809368014F
:10051000A7C0813091F5898180936B0110926901A8
:1005200090916801890F8093680184E08093700145
:1005300061E083E00E94700183E191E00E945A0132
:1005400080916B011F928F9383E591E09F938F932E
:1005500085EE91E09F938F930E94600369E083E0B2
:100560000E94700185EE91E00E945A010F900F9059
:100570000F900F900F900F9073C061E084E00E9485
:1005800070018BE191E00E945A010E94E70168C06E
:10059000898190E090936F0180936E016BE082E01F
:1005A0000E94700189E291E00E945A0180916F01DE
:1005B0008F9380916E018F9383E5E82E81E0F82E72
:1005C000FF92EF9205EE11E01F930F930E946003DC
:1005D00062E182E00E947001C8010E945A016BE052
:1005E00083E00E9470018FE291E00E945A018091A5
:1005F00068011F928F93FF92EF921F930F930E94B7
:10060000600362E183E00E947001C8010E945A0108
:100610008091680190E00FB6F894DEBF0FBECDBFA9
:1006200020916E0130916F0161E08217930759F4B8
:1006300084E00E94700185E391E00E945A0181E00C
:100640008093750109C084E00E94700186E591E005
:100650000E945A010E94E7011092680110927001F5
:100660000F90DF91CF911F910F91FF90EF90089520
:1006700097FB072E16F4009407D077FD09D00E944F
:100680004C0307FC05D03EF4909581959F4F08954B
:10069000709561957F4F0895AA1BBB1B51E107C060
:1006A000AA1FBB1FA617B70710F0A61BB70B881F02
:1006B000991F5A95A9F780959095BC01CD01089591
:1006C000AEE0B0E0E6E6F3E00C9421060D891E8969
:1006D00086E08C831A8309838FEF9FE79E838D8347
:1006E000AE01475E5F4F6F89788DCE0101960E9403
:1006F0008203EF81F885E00FF11F10822E96E4E06F
:100700000C943D06ABE0B0E0E8E8F3E00C9413068F
:100710006C017B018A01FC0117821682838181FFB3
:10072000CCC1CE0101963C01F6019381F70193FD06
:10073000859193FF81917F01882309F4BAC18532A5
:1007400039F493FD859193FF81917F01853229F4DE
:10075000B60190E00E947905E7CF912C212C312C35
:10076000FFE1F315D8F08B3279F038F4803279F06C
:100770008332A1F4232D20611DC08D3261F08033BE
:1007800069F4232D216016C0832D8260382EE32D5D
:10079000E4603E2E2AC0F32DF8601DC037FC2DC04A
:1007A00020ED280F2A3040F08E32B9F436FC81C19A
:1007B000232D2064322E19C036FE06C08AE0989E92
:1007C000200D1124922E11C0EAE02E9E200D11243E
:1007D000222EF32DF0623F2E08C08C3621F4832D9B
:1007E0008068382E02C0883641F4F70193FD859168
:1007F00093FF81917F018111B3CF982F9F7D9554F5
:10080000933028F40C5F1F4F9FE399830DC083360C
:1008100031F0833771F0833509F059C021C0F801F8
:10082000808189830E5F1F4F88248394912C53010C
:1008300013C02801F2E04F0E511CF801A080B180D6
:1008400036FE03C0692D70E002C06FEF7FEFC50177
:100850000E946E054C018201F32DFF773F2E16C0DA
:10086000280122E0420E511CF801A080B18036FE22
:1008700003C0692D70E002C06FEF7FEFC5010E94D9
:1008800063054C01F32DF0683F2E820133FC1BC041
:10089000822D90E088169906B0F4B60180E290E0CF
:1008A0000E9479052A94F4CFF50137FC859137FE33
:1008B00081915F01B60190E00E94790521102A9490
:1008C00021E0821A91088114910471F7E8C08436FE
:1008D00011F0893641F5F80137FE07C0608171815A
:1008E000828193810C5F1F4F08C060817181072E48
:1008F000000C880B990B0E5F1F4FF32DFF763F2ED8
:1009000097FF09C090958095709561957F4F8F4FA7
:100910009F4FF0683F2E2AE030E0A3010E94B5050A
:10092000882E861845C0853731F4232D2F7EB22EB0
:100930002AE030E025C0932D997FB92E8F36C1F083
:1009400018F4883579F0B5C0803719F0883721F070
:10095000B0C0E92FE061BE2EB4FE0DC0FB2DF460E7
:10096000BF2E09C034FE0AC0292F2660B22E06C051
:1009700028E030E005C020E130E002C020E132E0B4
:10098000F801B7FE07C060817181828193810C5F9D
:100990001F4F06C06081718180E090E00E5F1F4FA5
:1009A000A3010E94B505882E8618FB2DFF773F2EE8
:1009B00036FE0DC0232D2E7FA22E891458F434FE4E
:1009C0000BC032FC09C0832D8E7EA82E05C0B82C2A
:1009D000A32C03C0B82C01C0B92CA4FE0FC0FE018B
:1009E000E80DF11D8081803321F49A2D997EA92E86
:1009F00009C0A2FE06C0B394B39404C08A2D8678C1
:100A000009F0B394A3FC11C0A0FE06C0B21488F490
:100A1000280C922C9B180EC0B21460F4B60180E230
:100A200090E00E947905B394F7CFB21418F42B1814
:100A300002C0982C212CA4FE10C0B60180E390E0E7
:100A40000E947905A2FE17C0A1FC03C088E790E0D0
:100A500002C088E590E0B6010CC08A2D867859F076
:100A6000A1FE02C08BE201C080E2A7FC8DE2B601CC
:100A700090E00E947905891438F4B60180E390E093
:100A80000E9479059A94F7CF8A94F301E80DF11D3D
:100A90008081B60190E00E9479058110F5CF222077
:100AA00009F442CEB60180E290E00E9479052A94D2
:100AB000F6CFF6018681978102C08FEF9FEF2B96CC
:100AC000E2E10C942F06FC0105906150704001108A
:100AD000D8F7809590958E0F9F1F0895FC01615067
:100AE000704001900110D8F7809590958E0F9F1F50
:100AF00008950F931F93CF93DF93FB01238121FD73
:100B000003C08FEF9FEF2CC022FF16C04681578194
:100B1000248135814217530744F4A081B1819D019E
:100B20002F5F3F4F318320838C93268137812F5F46
:100B30003F4F3783268314C08B01EC01FB010084F7
:100B4000F185E02D0995892BE1F6D80116968D9156
:100B50009C911797019617969C938E931697CE01AA
:100B6000DF91CF911F910F910895FA01AA272830A4
:100B700051F1203181F1E8946F936E7F6E5F7F4F6A
:100B80008F4F9F4FAF4FB1E03ED0B4E03CD0670FE6
:100B9000781F891F9A1FA11D680F791F8A1F911D39
:100BA000A11D6A0F711D811D911DA11D20D009F489
:100BB00068943F912AE0269F11243019305D3193CB
:100BC000DEF6CF010895462F4770405D4193B3E0B4
:100BD0000FD0C9F7F6CF462F4F70405D4A3318F05B
:100BE000495D31FD4052419302D0A9F7EACFB4E00C
:100BF000A6959795879577956795BA95C9F70097C4
:100C00006105710508959B01AC010A2E0694579564
:100C1000479537952795BA95C9F7620F731F841FBB
:100C2000951FA01D08952F923F924F925F926F9251
:100C30007F928F929F92AF92BF92CF92DF92EF926C
:100C4000FF920F931F93CF93DF93CDB7DEB7CA1BED
:100C5000DB0B0FB6F894DEBF0FBECDBF09942A8818
:100C6000398848885F846E847D848C849B84AA84C0
:100C7000B984C884DF80EE80FD800C811B81AA814D
:100C8000B981CE0FD11D0FB6F894DEBF0FBECDBF18
:080C9000ED010895F894FFCF77
:100C9800545F5472616D6100256400436F6D616E2D
:100CA800646F0064617442797465004572726F7292
:100CB800207472616D6120200043684B5F4C0043D3
:100CC800686B5F43005472616D6120436F72726597
:100CD800637461004572726F72204368656B737547
:100CE8006D20002578004572726F72204368656B2D
:080CF80073756D20202000003F
:00000001FF
