S0140000554152545F4573636C61766F2E73726563A8
S11300000C9434000C9451000C9451000C94510045
S11300100C9451000C9451000C9451000C94510018
S11300200C9451000C9451000C9451000C94510008
S11300300C9451000C9451000C9451000C945100F8
S11300400C9451000C9451000C949E000C9451009B
S11300500C9451000C9451000C9451000C945100D8
S11300600C9451000C94510011241FBECFEFD8E022
S1130070DEBFCDBF11E0A0E0B1E0EEE2F3E002C0EC
S113008005900D92A030B107D9F721E0A0E0B1E0CE
S113009001C01D92A636B207E1F70E949B000C94A2
S11300A095010C940000FC01EE5AFF4F81E0908111
S11300B0903509F080E00895CF939C01C62FFC0190
S11300C0EE5AFF4F40814035A1F03197808190E096
S11300D0019660E570E00E946D018083F901E80FEC
S11300E0F11DC083F901EE5AFF4F4F5F408381E059
S11300F001C080E0CF9108959C01FC01EE5AFF4FAE
S113010080818823B1F032978081D901A80FB11D75
S11301108C91DB018C93808190E0019660E570E026
S11301200E946D018083329680818150808381E0BA
S1130130089580E008950E94DD00FDCF1F920F9284
S11301400FB60F9211242F933F934F935F936F93A6
S11301507F938F939F93AF93BF93CF93EF93FF932B
S1130160C091C60083E191E00E945300882329F0E6
S11301706C2F83E191E00E945C00FF91EF91CF919D
S1130180BF91AF919F918F917F916F915F914F91AB
S11301903F912F910F900FBE0F901F901895E2E0A2
S11301A0F1E0178210861186128613861682158254
S11301B012821482138211820895CF93DF931F92C7
S11301C0CDB7DEB7BE016F5F7F4F83E191E00E9440
S11301D07C0080910901811108C08981823009F075
S11301E078C081E08093090174C080910A01811173
S11301F011C02981E2E0F1E0208381E080878091D1
S1130200000190910101820F911D9093010180934F
S113021000015FC080910B01811114C02981E2E0CB
S1130220F1E0218380818150808381E08187809106
S1130230000190910101820F911D9093010180931F
S1130240000147C080910201882361F1823099F452
S1130250898190E0E2E0F1E09483838321E02083CC
S11302602091000130910101820F931F90930101AD
S1130270809300012EC0813081F42981E2E0F1E015
S1130280228310828091000190910101820F911DBF
S113029090930101809300011CC0109201011092FF
S11302A0000117C0898190E09093080180930701B1
S11302B020910001309101018217930721F481E01C
S11302C080930D0102C00E94CF0010920101109290
S11302D000010F90DF91CF91089597FB072E16F43C
S11302E0009407D077FD09D00E94810107FC05D056
S11302F03EF4909581959F4F0895709561957F4F39
S11303000895AA1BBB1B51E107C0AA1FBB1FA61758
S1130310B70710F0A61BB70B881F991F5A95A9F7AA
S111032080959095BC01CD010895F894FFCF0F
S9030000FC
