S01C0000554152545F4573636C61766F5F4154584D4547412E737265633A
S11300000C94BC000C94D9000C94D9000C94D90025
S11300100C94D9000C94D9000C94D9000C94D900F8
S11300200C94D9000C94D9000C94D9000C94D900E8
S11300300C94D9000C94D9000C94D9000C94D900D8
S11300400C94D9000C94D9000C94D9000C94D900C8
S11300500C94D9000C94D9000C94D9000C94D900B8
S11300600C94D9000C945B010C94D9000C94D90025
S11300700C948C010C94D9000C94D9000C94D900E4
S11300800C94D9000C94D9000C94D9000C94D90088
S11300900C94D9000C94D9000C94D9000C94D90078
S11300A00C94D9000C94D9000C94D9000C94D90068
S11300B00C94D9000C94D9000C94D9000C94D90058
S11300C00C94D9000C94D9000C94D9000C94D90048
S11300D00C94D9000C94D9000C94D9000C94D90038
S11300E00C94D9000C94D9000C94D9000C94D90028
S11300F00C94D9000C94D9000C94D9000C94D90018
S11301000C94D9000C94D9000C94D9000C94D90007
S11301100C94D9000C94D9000C94D9000C94D900F7
S11301200C94D9000C94D9000C94D9000C94D900E7
S11301300C94D9000C94D9000C94D9000C94D900D7
S11301400C94D9000C94D9000C94D9000C94D900C7
S11301500C94D9000C94D9000C94D9000C94D900B7
S11301600C94D9000C94D9000C94D9000C94D900A7
S11301700C94D9000C94D90011241FBECFEFCDBF2D
S1130180DFE2DEBF10E2A0E0B0E2EAE7F7E002C09F
S113019005900D92AE3CB107D9F721E2AEECB0E286
S11301A001C01D92AF3BB207E1F70E9448010C94D5
S11301B0BB030C940000FC01EC59FF4F10823196F4
S11301C01082319610820895FC01EA59FF4F81E0B4
S11301D09081943609F080E008950F931F93CF9394
S11301E0DF93FC01362FEC01CA59DF4F28812436F6
S11301F041F460E070E280E090E00E94210280E03F
S113020019C08C010B591F4FD8018C9190E00196B5
S113021064E670E00E949303D8018C93E80FF91F01
S113022030832F5F28836FE070E280E090E00E94CB
S1130230210281E0DF91CF911F910F910895CF9317
S1130240DF93FC01EA59FF4F20812223E9F0EC01FE
S1130250CC59DF4F2881820F911DDC018C91DB0189
S11302608C93888190E0019664E670E00E94930389
S113027088838081815080836CE170E280E090E02B
S11302800E94210281E001C080E0DF91CF910895B6
S1130290F89481E00E94DB0180E00E94DB010E946F
S11302A057038091A20082608093A200789481E039
S11302B00E943402FCCF1F920F920FB60F921124AA
S11302C02F933F934F935F936F937F938F939F935A
S11302D0AF93BF93CF93EF93FF93C091A00888E5AA
S11302E091E20E94E400811105C06C2F88E591E23F
S11302F00E94ED00FF91EF91CF91BF91AF919F913B
S11303008F917F916F915F914F913F912F910F90BA
S11303100FBE0F901F9018951F920F920FB60F9259
S113032011242F933F934F935F936F937F938F93F6
S11303309F93AF93BF93CF93EF93FF93C091B00874
S113034081EF90E20E94E400811105C06C2F81EFDF
S113035090E20E94ED00FF91EF91CF91BF91AF9198
S11303609F918F917F916F915F914F913F912F91C9
S11303700F900FBE0F901F901895CF93C82F88E54C
S113038091E20E94DB0081EF90E20E94DB00CC232B
S113039019F0EFECF0E202C0EBEDF0E21782108608
S11303A01186128613861582168212821382148293
S11303B01182CF910895811116C088E0809341067F
S11303C084E08093420680E28093A30888E18093CE
S11303D0A40883E08093A5088093A60886E9809307
S11303E0A70880E018C08130C1F480E880934106FA
S11303F080E48093420680E28093B30888E180938E
S1130400B40883E38093B50883E08093B60886E953
S11304108093B70881E00C94BD010895882319F0F6
S1130420EFECF0E202C0EBEDF0E2178210861186E9
S11304301286138615821682128213821482118206
S11304400895882319F0A0EBB8E002C0A0EAB8E050
S1130450FB018191882339F011969C91119795FFA6
S1130460FBCF8C93F6CF08951F93CF93DF931F9206
S1130470CDB7DEB7182F1982BE016F5F7F4F81EFB2
S113048090E20E941F018091D62081110BC0198136
S1130490113009F07DC06DE270E20E9421021093D8
S11304A0D62076C08091D72081110EC08981809397
S11304B0CF2091E09093D7209091CE2089278093EC
S11304C0CE206EE370E241C09091D8208091CF207D
S11304D0911111C099819093D02081508093CF20A5
S11304E081E08093D8208091CE2098279093CE20CD
S11304F06BE570E22AC0882361F1823091F489812E
S1130500282F30E02093D2203093D32091E0909391
S1130510CF209091CE2089278093CE2060E770E28F
S113052014C0813069F489818093D1201092CF2046
S11305309091CE2089278093CE2063E870E205C095
S1130540812F0E940E0266E970E280E00E9421027F
S11305501FC0898190E08093D4209093D52020916E
S1130560CE2030E08217930749F467EA70E280E016
S11305700E94210281E08093DA2008C06AEB70E2D5
S113058080E00E942102812F0E940E021092CE2050
S11305900F90DF91CF911F910895E4E6F6E09081EA
S11305A09B7F9083A0E6B6E09C91906F9C93908192
S11305B0807F9F70892B808383E08A95F1F7000008
S11305C080818860808383E08A95F1F700008081D0
S11305D0877F80838C918F708C930895882321F07A
S11305E080916406826003C0809164068D7F80934D
S11305F0640680916406846080936406809160063A
S11306008F708093600600C000C08091640688608B
S11306108093640600C000C020916806809164063F
S1130620877F8093640600C000C080916406886060
S11306308093640600C000C09091680680916406AF
S1130640877F80936406207F892F82958F70822B09
S11306500895CF93DF93C82FD62F80E00E94EE0237
S113066087FDFBCF80916406DD2311F0826001C019
S11306708D7F8093640688E08A95F1F78C2F0E9421
S1130680CD028C2F8295807FDF91CF910C94CD0287
S113069060E081E00C942903882341F0E3EFF1E06A
S11306A03197F1F700C000008150F6CF0895E0E6DD
S11306B0F6E08081806F808380818E608083E4E6B1
S11306C0F6E08081817F80838DE20E944C0380E389
S11306D00E94CD0285E00E944C0380E30E94CD027B
S11306E081E00E944C0380E30E94CD0281E00E94DD
S11306F04C0380E20E94CD0283E00E944C0380E21E
S11307000E94CD0280E80E94CD0260E08CE00E944D
S1130710290360E081E00E94290360E086E00E94F2
S113072029030C94480397FB072E16F4009407D072
S113073077FD09D00E94A70307FC05D03EF49095ED
S113074081959F4F0895709561957F4F0895AA1BD9
S1130750BB1B51E107C0AA1FBB1FA617B70710F0A8
S1130760A61BB70B881F991F5A95A9F780959095DA
S10D0770BC01CD010895F894FFCFF9
S113077A627566666572204C6C656E6F0A0D00615F
S113078A6464206275666665720A0D006C65796F29
S113079A20756E206275666665720A0D00436F6D78
S11307AA69656E7A6F207472616D610A0D00446521
S11307BA746563746F20656C2074616D616E6F205B
S11307CA6465207472616D610A0D00446574656321
S11307DA746F20656C20436F6D616E646F0A0D003F
S11307EA4465746563746F20656C2062797465323C
S11307FA0A0D004465746563746F20656C20627920
S113080A7465310A0D004572726F72206465205452
S113081A72616D610A0D005472616D6120636F6DBE
S113082A706C65746164610A0D004572726F72209E
S111083A6465204368656B73756D0A0D0000DC
S9030000FC
